{
  "_format": "hh-sol-artifact-1",
  "contractName": "TaskFactory",
  "sourceName": "contracts/TaskFactory.sol",
  "abi": [
    {
      "inputs": [
        {
          "internalType": "string",
          "name": "_taskDescription",
          "type": "string"
        }
      ],
      "name": "createTask",
      "outputs": [],
      "stateMutability": "nonpayable",
      "type": "function"
    },
    {
      "inputs": [
        {
          "internalType": "uint256",
          "name": "_taskId",
          "type": "uint256"
        }
      ],
      "name": "getTaskLabels",
      "outputs": [
        {
          "internalType": "string[]",
          "name": "",
          "type": "string[]"
        }
      ],
      "stateMutability": "view",
      "type": "function"
    },
    {
      "inputs": [],
      "name": "getTasksByAssignee",
      "outputs": [
        {
          "components": [
            {
              "internalType": "uint256",
              "name": "id",
              "type": "uint256"
            },
            {
              "internalType": "uint256",
              "name": "date",
              "type": "uint256"
            },
            {
              "internalType": "string",
              "name": "taskDescription",
              "type": "string"
            },
            {
              "internalType": "string[]",
              "name": "labels",
              "type": "string[]"
            },
            {
              "internalType": "address",
              "name": "assignee",
              "type": "address"
            },
            {
              "internalType": "uint8",
              "name": "status",
              "type": "uint8"
            }
          ],
          "internalType": "struct TaskFactory.Task[]",
          "name": "",
          "type": "tuple[]"
        }
      ],
      "stateMutability": "view",
      "type": "function"
    },
    {
      "inputs": [],
      "name": "taskCount",
      "outputs": [
        {
          "internalType": "uint256",
          "name": "",
          "type": "uint256"
        }
      ],
      "stateMutability": "view",
      "type": "function"
    },
    {
      "inputs": [
        {
          "internalType": "uint256",
          "name": "",
          "type": "uint256"
        }
      ],
      "name": "tasks",
      "outputs": [
        {
          "internalType": "uint256",
          "name": "id",
          "type": "uint256"
        },
        {
          "internalType": "uint256",
          "name": "date",
          "type": "uint256"
        },
        {
          "internalType": "string",
          "name": "taskDescription",
          "type": "string"
        },
        {
          "internalType": "address",
          "name": "assignee",
          "type": "address"
        },
        {
          "internalType": "uint8",
          "name": "status",
          "type": "uint8"
        }
      ],
      "stateMutability": "view",
      "type": "function"
    },
    {
      "inputs": [
        {
          "internalType": "uint256",
          "name": "_taskId",
          "type": "uint256"
        },
        {
          "internalType": "address",
          "name": "_newAssignee",
          "type": "address"
        }
      ],
      "name": "updateAssignee",
      "outputs": [],
      "stateMutability": "nonpayable",
      "type": "function"
    },
    {
      "inputs": [
        {
          "internalType": "uint256",
          "name": "_taskId",
          "type": "uint256"
        },
        {
          "internalType": "string",
          "name": "_label",
          "type": "string"
        }
      ],
      "name": "updateTaskLabel",
      "outputs": [],
      "stateMutability": "nonpayable",
      "type": "function"
    },
    {
      "inputs": [
        {
          "internalType": "uint256",
          "name": "_taskId",
          "type": "uint256"
        },
        {
          "internalType": "uint8",
          "name": "_status",
          "type": "uint8"
        }
      ],
      "name": "updateTaskStatus",
      "outputs": [],
      "stateMutability": "nonpayable",
      "type": "function"
    }
  ],
  "bytecode": "0x60806040526000805534801561001457600080fd5b5061158c806100246000396000f3fe608060405234801561001057600080fd5b50600436106100885760003560e01c80638d9776721161005b5780638d97767214610113578063ab9b681114610147578063b6cb58a514610163578063bb4490b51461018157610088565b8063111002aa1461008d5780632c0cc632146100a95780633d5da419146100d95780633ea8d4eb146100f5575b600080fd5b6100a760048036038101906100a29190610a2d565b61019d565b005b6100c360048036038101906100be9190610aac565b61031a565b6040516100d09190610c1a565b60405180910390f35b6100f360048036038101906100ee9190610c9c565b610477565b005b6100fd61053c565b60405161010a9190610f40565b60405180910390f35b61012d60048036038101906101289190610aac565b6105a0565b60405161013e959493929190610fd9565b60405180910390f35b610161600480360381019061015c919061105f565b61068b565b005b61016b61072c565b604051610178919061109f565b60405180910390f35b61019b600480360381019061019691906110e6565b610732565b005b6000808154809291906101af90611155565b919050555060006040518060c001604052806000548152602001428152602001838152602001600067ffffffffffffffff8111156101f0576101ef610902565b5b60405190808252806020026020018201604052801561022357816020015b606081526020019060019003908161020e5790505b5081526020013373ffffffffffffffffffffffffffffffffffffffff168152602001600060ff1681525090508060016000805481526020019081526020016000206000820151816000015560208201518160010155604082015181600201908161028d91906113a9565b5060608201518160030190805190602001906102aa9291906107f9565b5060808201518160040160006101000a81548173ffffffffffffffffffffffffffffffffffffffff021916908373ffffffffffffffffffffffffffffffffffffffff16021790555060a08201518160040160146101000a81548160ff021916908360ff1602179055509050505050565b60603373ffffffffffffffffffffffffffffffffffffffff166001600084815260200190815260200160002060040160009054906101000a900473ffffffffffffffffffffffffffffffffffffffff1673ffffffffffffffffffffffffffffffffffffffff161461038a57600080fd5b60016000838152602001908152602001600020600301805480602002602001604051908101604052809291908181526020016000905b8282101561046c5783829060005260206000200180546103df906111cc565b80601f016020809104026020016040519081016040528092919081815260200182805461040b906111cc565b80156104585780601f1061042d57610100808354040283529160200191610458565b820191906000526020600020905b81548152906001019060200180831161043b57829003601f168201915b5050505050815260200190600101906103c0565b505050509050919050565b3373ffffffffffffffffffffffffffffffffffffffff166001600085815260200190815260200160002060040160009054906101000a900473ffffffffffffffffffffffffffffffffffffffff1673ffffffffffffffffffffffffffffffffffffffff16146104e557600080fd5b60016000848152602001908152602001600020600301828290918060018154018082558091505060019003906000526020600020016000909192909192909192909192509182610536929190611486565b50505050565b60608060005b6000548111610598573373ffffffffffffffffffffffffffffffffffffffff166001600083815260200190815260200160002060040160009054906101000a90505050808061059090611155565b915050610542565b508091505090565b60016020528060005260406000206000915090508060000154908060010154908060020180546105cf906111cc565b80601f01602080910402602001604051908101604052809291908181526020018280546105fb906111cc565b80156106485780601f1061061d57610100808354040283529160200191610648565b820191906000526020600020905b81548152906001019060200180831161062b57829003601f168201915b5050505050908060040160009054906101000a900473ffffffffffffffffffffffffffffffffffffffff16908060040160149054906101000a900460ff16905085565b3373ffffffffffffffffffffffffffffffffffffffff166001600084815260200190815260200160002060040160009054906101000a900473ffffffffffffffffffffffffffffffffffffffff1673ffffffffffffffffffffffffffffffffffffffff16146106f957600080fd5b806001600084815260200190815260200160002060040160146101000a81548160ff021916908360ff1602179055505050565b60005481565b3373ffffffffffffffffffffffffffffffffffffffff166001600084815260200190815260200160002060040160009054906101000a900473ffffffffffffffffffffffffffffffffffffffff1673ffffffffffffffffffffffffffffffffffffffff16146107a057600080fd5b806001600084815260200190815260200160002060040160006101000a81548173ffffffffffffffffffffffffffffffffffffffff021916908373ffffffffffffffffffffffffffffffffffffffff1602179055505050565b828054828255906000526020600020908101928215610841579160200282015b8281111561084057825182908161083091906113a9565b5091602001919060010190610819565b5b50905061084e9190610852565b5090565b5b8082111561087257600081816108699190610876565b50600101610853565b5090565b508054610882906111cc565b6000825580601f1061089457506108b3565b601f0160209004906000526020600020908101906108b291906108b6565b5b50565b5b808211156108cf5760008160009055506001016108b7565b5090565b6000604051905090565b600080fd5b600080fd5b600080fd5b600080fd5b6000601f19601f8301169050919050565b7f4e487b7100000000000000000000000000000000000000000000000000000000600052604160045260246000fd5b61093a826108f1565b810181811067ffffffffffffffff8211171561095957610958610902565b5b80604052505050565b600061096c6108d3565b90506109788282610931565b919050565b600067ffffffffffffffff82111561099857610997610902565b5b6109a1826108f1565b9050602081019050919050565b82818337600083830152505050565b60006109d06109cb8461097d565b610962565b9050828152602081018484840111156109ec576109eb6108ec565b5b6109f78482856109ae565b509392505050565b600082601f830112610a1457610a136108e7565b5b8135610a248482602086016109bd565b91505092915050565b600060208284031215610a4357610a426108dd565b5b600082013567ffffffffffffffff811115610a6157610a606108e2565b5b610a6d848285016109ff565b91505092915050565b6000819050919050565b610a8981610a76565b8114610a9457600080fd5b50565b600081359050610aa681610a80565b92915050565b600060208284031215610ac257610ac16108dd565b5b6000610ad084828501610a97565b91505092915050565b600081519050919050565b600082825260208201905092915050565b6000819050602082019050919050565b600081519050919050565b600082825260208201905092915050565b60005b83811015610b3f578082015181840152602081019050610b24565b60008484015250505050565b6000610b5682610b05565b610b608185610b10565b9350610b70818560208601610b21565b610b79816108f1565b840191505092915050565b6000610b908383610b4b565b905092915050565b6000602082019050919050565b6000610bb082610ad9565b610bba8185610ae4565b935083602082028501610bcc85610af5565b8060005b85811015610c085784840389528151610be98582610b84565b9450610bf483610b98565b925060208a01995050600181019050610bd0565b50829750879550505050505092915050565b60006020820190508181036000830152610c348184610ba5565b905092915050565b600080fd5b600080fd5b60008083601f840112610c5c57610c5b6108e7565b5b8235905067ffffffffffffffff811115610c7957610c78610c3c565b5b602083019150836001820283011115610c9557610c94610c41565b5b9250929050565b600080600060408486031215610cb557610cb46108dd565b5b6000610cc386828701610a97565b935050602084013567ffffffffffffffff811115610ce457610ce36108e2565b5b610cf086828701610c46565b92509250509250925092565b600081519050919050565b600082825260208201905092915050565b6000819050602082019050919050565b610d3181610a76565b82525050565b600082825260208201905092915050565b6000610d5382610ad9565b610d5d8185610d37565b935083602082028501610d6f85610af5565b8060005b85811015610dab5784840389528151610d8c8582610b84565b9450610d9783610b98565b925060208a01995050600181019050610d73565b50829750879550505050505092915050565b600073ffffffffffffffffffffffffffffffffffffffff82169050919050565b6000610de882610dbd565b9050919050565b610df881610ddd565b82525050565b600060ff82169050919050565b610e1481610dfe565b82525050565b600060c083016000830151610e326000860182610d28565b506020830151610e456020860182610d28565b5060408301518482036040860152610e5d8282610b4b565b91505060608301518482036060860152610e778282610d48565b9150506080830151610e8c6080860182610def565b5060a0830151610e9f60a0860182610e0b565b508091505092915050565b6000610eb68383610e1a565b905092915050565b6000602082019050919050565b6000610ed682610cfc565b610ee08185610d07565b935083602082028501610ef285610d18565b8060005b85811015610f2e5784840389528151610f0f8582610eaa565b9450610f1a83610ebe565b925060208a01995050600181019050610ef6565b50829750879550505050505092915050565b60006020820190508181036000830152610f5a8184610ecb565b905092915050565b610f6b81610a76565b82525050565b600082825260208201905092915050565b6000610f8d82610b05565b610f978185610f71565b9350610fa7818560208601610b21565b610fb0816108f1565b840191505092915050565b610fc481610ddd565b82525050565b610fd381610dfe565b82525050565b600060a082019050610fee6000830188610f62565b610ffb6020830187610f62565b818103604083015261100d8186610f82565b905061101c6060830185610fbb565b6110296080830184610fca565b9695505050505050565b61103c81610dfe565b811461104757600080fd5b50565b60008135905061105981611033565b92915050565b60008060408385031215611076576110756108dd565b5b600061108485828601610a97565b92505060206110958582860161104a565b9150509250929050565b60006020820190506110b46000830184610f62565b92915050565b6110c381610ddd565b81146110ce57600080fd5b50565b6000813590506110e0816110ba565b92915050565b600080604083850312156110fd576110fc6108dd565b5b600061110b85828601610a97565b925050602061111c858286016110d1565b9150509250929050565b7f4e487b7100000000000000000000000000000000000000000000000000000000600052601160045260246000fd5b600061116082610a76565b91507fffffffffffffffffffffffffffffffffffffffffffffffffffffffffffffffff820361119257611191611126565b5b600182019050919050565b7f4e487b7100000000000000000000000000000000000000000000000000000000600052602260045260246000fd5b600060028204905060018216806111e457607f821691505b6020821081036111f7576111f661119d565b5b50919050565b60008190508160005260206000209050919050565b60006020601f8301049050919050565b600082821b905092915050565b60006008830261125f7fffffffffffffffffffffffffffffffffffffffffffffffffffffffffffffffff82611222565b6112698683611222565b95508019841693508086168417925050509392505050565b6000819050919050565b60006112a66112a161129c84610a76565b611281565b610a76565b9050919050565b6000819050919050565b6112c08361128b565b6112d46112cc826112ad565b84845461122f565b825550505050565b600090565b6112e96112dc565b6112f48184846112b7565b505050565b5b818110156113185761130d6000826112e1565b6001810190506112fa565b5050565b601f82111561135d5761132e816111fd565b61133784611212565b81016020851015611346578190505b61135a61135285611212565b8301826112f9565b50505b505050565b600082821c905092915050565b600061138060001984600802611362565b1980831691505092915050565b6000611399838361136f565b9150826002028217905092915050565b6113b282610b05565b67ffffffffffffffff8111156113cb576113ca610902565b5b6113d582546111cc565b6113e082828561131c565b600060209050601f8311600181146114135760008415611401578287015190505b61140b858261138d565b865550611473565b601f198416611421866111fd565b60005b8281101561144957848901518255600182019150602085019450602081019050611424565b868310156114665784890151611462601f89168261136f565b8355505b6001600288020188555050505b505050505050565b600082905092915050565b611490838361147b565b67ffffffffffffffff8111156114a9576114a8610902565b5b6114b382546111cc565b6114be82828561131c565b6000601f8311600181146114ed57600084156114db578287013590505b6114e5858261138d565b86555061154d565b601f1984166114fb866111fd565b60005b82811015611523578489013582556001820191506020850194506020810190506114fe565b86831015611540578489013561153c601f89168261136f565b8355505b6001600288020188555050505b5050505050505056fea26469706673582212200b189f7db3b9c0adc293285811abd0c0df5e8bfc151a79c908864520cf8396ce64736f6c63430008110033",
  "linkReferences": {},
  "deployedLinkReferences": {}
}